{
  "contractName": "Oracle",
  "abi": [
    {
      "anonymous": false,
      "inputs": [
        {
          "indexed": false,
          "name": "id",
          "type": "uint256"
        },
        {
          "indexed": false,
          "name": "urlToQuerry",
          "type": "string"
        },
        {
          "indexed": false,
          "name": "attributeToFetch",
          "type": "string"
        }
      ],
      "name": "NewRequest",
      "type": "event"
    },
    {
      "anonymous": false,
      "inputs": [
        {
          "indexed": false,
          "name": "id",
          "type": "uint256"
        },
        {
          "indexed": false,
          "name": "urlToQuerry",
          "type": "string"
        },
        {
          "indexed": false,
          "name": "attributeToFetch",
          "type": "string"
        },
        {
          "indexed": false,
          "name": "agreedValue",
          "type": "string"
        }
      ],
      "name": "UpdatedRequest",
      "type": "event"
    },
    {
      "constant": false,
      "inputs": [
        {
          "name": "_urlToQuerry",
          "type": "string"
        },
        {
          "name": "_attributeToFetch",
          "type": "string"
        }
      ],
      "name": "createRequest",
      "outputs": [],
      "payable": false,
      "stateMutability": "nonpayable",
      "type": "function"
    },
    {
      "constant": false,
      "inputs": [
        {
          "name": "_id",
          "type": "uint256"
        },
        {
          "name": "_valueRetrieved",
          "type": "string"
        }
      ],
      "name": "updateRequest",
      "outputs": [],
      "payable": false,
      "stateMutability": "nonpayable",
      "type": "function"
    }
  ],
  "bytecode": "0x608060405260006001556003600255600560035534801561001f57600080fd5b50610b9d8061002f6000396000f30060806040526004361061004c576000357c0100000000000000000000000000000000000000000000000000000000900463ffffffff168063cfb0ac9914610051578063df89f819146100c4575b600080fd5b34801561005d57600080fd5b506100c260048036038101908080359060200190929190803590602001908201803590602001908080601f0160208091040260200160405190810160405280939291908181526020018383808284378201915050505050509192919290505050610173565b005b3480156100d057600080fd5b50610171600480360381019080803590602001908201803590602001908080601f0160208091040260200160405190810160405280939291908181526020018383808284378201915050505050509192919290803590602001908201803590602001908080601f016020809104026020016040519081016040528093929190818152602001838380828437820191505050505050919291929050505061066f565b005b600080600080600060608060008981548110151561018d57fe5b9060005260206000209060060201965060018760050160003373ffffffffffffffffffffffffffffffffffffffff1673ffffffffffffffffffffffffffffffffffffffff1681526020019081526020016000205414156106645760038760050160003373ffffffffffffffffffffffffffffffffffffffff1673ffffffffffffffffffffffffffffffffffffffff1681526020019081526020016000208190555060009550600094505b8415156102ac576000876004016000888152602001908152602001600020805460018160011615610100020316600290049050141561029f576001945087876004016000888152602001908152602001600020908051906020019061029d929190610a4c565b505b8580600101965050610237565b60009350600092505b600354831015610663578660040160008481526020019081526020016000208054600181600116156101000203166002900480601f0160208091040260200160405190810160405280929190818152602001828054600181600116156101000203166002900480156103685780601f1061033d57610100808354040283529160200191610368565b820191906000526020600020905b81548152906001019060200180831161034b57829003601f168201915b50505050509150879050806040518082805190602001908083835b6020831015156103a85780518252602082019150602081019050602083039250610383565b6001836020036101000a038019825116818451168082178552505050505050905001915050604051809103902060001916826040518082805190602001908083835b60208310151561040f57805182526020820191506020810190506020830392506103ea565b6001836020036101000a0380198251168184511680821785525050505050509050019150506040518091039020600019161415610656578380600101945050600254841015156106555787876003019080519060200190610471929190610a4c565b507f51f1e1f00d186e79f8ea7c82be079fcdd49fe881904a9cdc1903345eb69d3831876000015488600101896002018a6003016040518085815260200180602001806020018060200184810384528781815460018160011615610100020316600290048152602001915080546001816001161561010002031660029004801561053b5780601f106105105761010080835404028352916020019161053b565b820191906000526020600020905b81548152906001019060200180831161051e57829003601f168201915b50508481038352868181546001816001161561010002031660029004815260200191508054600181600116156101000203166002900480156105be5780601f10610593576101008083540402835291602001916105be565b820191906000526020600020905b8154815290600101906020018083116105a157829003601f168201915b50508481038252858181546001816001161561010002031660029004815260200191508054600181600116156101000203166002900480156106415780601f1061061657610100808354040283529160200191610641565b820191906000526020600020905b81548152906001019060200180831161062457829003601f168201915b505097505050505050505060405180910390a15b5b82806001019350506102b5565b5b505050505050505050565b600080600060806040519081016040528060015481526020018681526020018581526020016020604051908101604052806000815250815250908060018154018082558091505090600182039060005260206000209060060201600090919290919091506000820151816000015560208201518160010190805190602001906106f9929190610acc565b506040820151816002019080519060200190610716929190610acc565b506060820151816003019080519060200190610733929190610acc565b505050915060006001830381548110151561074a57fe5b906000526020600020906006020190506001816005016000736c2339b46f41a06f09ca0051ddad54d1e582ba7773ffffffffffffffffffffffffffffffffffffffff1673ffffffffffffffffffffffffffffffffffffffff16815260200190815260200160002081905550600181600501600073b5346cf224c02186606e5f89eacc21ec2539807773ffffffffffffffffffffffffffffffffffffffff1673ffffffffffffffffffffffffffffffffffffffff168152602001908152602001600020819055506001816005016000731e348e1873765043aac6c39174c4d8818256e3df73ffffffffffffffffffffffffffffffffffffffff1673ffffffffffffffffffffffffffffffffffffffff168152602001908152602001600020819055506001816005016000737efb568747439e8d9204f645cd39f7b4c42f2e9773ffffffffffffffffffffffffffffffffffffffff1673ffffffffffffffffffffffffffffffffffffffff16815260200190815260200160002081905550600181600501600073eff0891bb026690572d53f34ccb1723b5e80a2de73ffffffffffffffffffffffffffffffffffffffff1673ffffffffffffffffffffffffffffffffffffffff168152602001908152602001600020819055507f0312239616abfb14f7ffa065155abb0ca047274d86c965890db4c8a48b8ce4b66001548585604051808481526020018060200180602001838103835285818151815260200191508051906020019080838360005b83811015610991578082015181840152602081019050610976565b50505050905090810190601f1680156109be5780820380516001836020036101000a031916815260200191505b50838103825284818151815260200191508051906020019080838360005b838110156109f75780820151818401526020810190506109dc565b50505050905090810190601f168015610a245780820380516001836020036101000a031916815260200191505b509550505050505060405180910390a160016000815480929190600101919050555050505050565b828054600181600116156101000203166002900490600052602060002090601f016020900481019282601f10610a8d57805160ff1916838001178555610abb565b82800160010185558215610abb579182015b82811115610aba578251825591602001919060010190610a9f565b5b509050610ac89190610b4c565b5090565b828054600181600116156101000203166002900490600052602060002090601f016020900481019282601f10610b0d57805160ff1916838001178555610b3b565b82800160010185558215610b3b579182015b82811115610b3a578251825591602001919060010190610b1f565b5b509050610b489190610b4c565b5090565b610b6e91905b80821115610b6a576000816000905550600101610b52565b5090565b905600a165627a7a72305820cf2698312eb2fc4488711bd7e2c99ab0a60fb3e7318d7744ed24062d7185d5830029",
  "source": "pragma solidity ^0.4.22;\r\n\r\ncontract Oracle\t{\r\n\tRequest[] requests;\r\n\tuint currentId = 0;\r\n\tuint minResponse = 3;\r\n\tuint totalOracleCount = 5;\r\n\r\n\tstruct Request {\r\n\t\tuint id;\r\n\t\tstring urlToQuerry;\r\n\t\tstring attributeToFetch;\r\n\t\tstring agreedValue;\r\n\t\tmapping(uint => string) ans;\r\n\t\tmapping(address => uint) quorum;\r\n\t}\r\n\r\n\tevent NewRequest (\r\n\t\tuint id,\r\n\t\tstring urlToQuerry,\r\n\t\tstring attributeToFetch\r\n\t);\r\n\r\n\tevent UpdatedRequest (\r\n\t\tuint id,\r\n\t\tstring urlToQuerry,\r\n\t\tstring attributeToFetch,\r\n\t\tstring agreedValue\r\n\t);\r\n\r\n\tfunction createRequest ( string memory _urlToQuerry, string memory _attributeToFetch) public {\r\n\t\tuint leng = requests.push(Request(currentId, _urlToQuerry, _attributeToFetch, \"\"));\r\n\t\tRequest storage r = requests[leng-1];\r\n\r\n\t\tr.quorum[address(0x6c2339b46F41a06f09CA0051ddAD54D1e582bA77)] = 1;\r\n\t    r.quorum[address(0xb5346CF224c02186606e5f89EACC21eC25398077)] = 1;\r\n\t    r.quorum[address(0x1E348e1873765043aAC6C39174C4d8818256E3df)] = 1;\r\n\t    r.quorum[address(0x7EfB568747439E8d9204f645Cd39f7b4C42f2E97)] = 1;\r\n\t    r.quorum[address(0xeff0891bB026690572D53f34ccb1723B5e80a2DE)] = 1;\r\n\r\n\t    emit NewRequest ( currentId, _urlToQuerry, _attributeToFetch);\r\n\r\n\t    currentId++;\r\n\r\n\t}\r\n\r\n\tfunction updateRequest (uint _id, string memory _valueRetrieved) public {\r\n\t\tRequest storage curRequest = requests[_id];\r\n\r\n\t\tif(curRequest.quorum[address(msg.sender)] == 1){\r\n\t\t\tcurRequest.quorum[msg.sender] = 3;\r\n\r\n\t\t\tuint tmpI = 0;\r\n\t\t\tbool found = false;\r\n\r\n\t\t\twhile(!found) {\r\n\t\t\t\tif(bytes(curRequest.ans[tmpI]).length == 0){\r\n\t\t\t\t\tfound = true;\r\n\t\t\t\t\tcurRequest.ans[tmpI] = _valueRetrieved;\r\n\t\t\t\t}\r\n\t\t\t\ttmpI++;\r\n\t\t\t}\r\n\t\t\tuint currentQuorum = 0;\r\n\r\n\t\t\tfor(uint i = 0; i < totalOracleCount; i++){\r\n\t\t        bytes memory a = bytes(curRequest.ans[i]);\r\n\t\t        bytes memory b = bytes(_valueRetrieved);\r\n\r\n\t\t        if(keccak256(a) == keccak256(b)){\r\n\t\t          currentQuorum++;\r\n\t\t          if(currentQuorum >= minResponse){\r\n\t\t            curRequest.agreedValue = _valueRetrieved;\r\n\t\t            emit UpdatedRequest (\r\n\t\t              curRequest.id,\r\n\t\t              curRequest.urlToQuerry,\r\n\t\t              curRequest.attributeToFetch,\r\n\t\t              curRequest.agreedValue\r\n\t\t            );\r\n\t\t          }\r\n\t\t        }\r\n\t      \t}\r\n\t\t}\r\n\t}\r\n}",
  "sourcePath": "C:/Users/Debo/oraclenodeBACT2/onChain/contracts/Oracle.sol",
  "compiler": {
    "name": "solc",
    "version": "0.4.22+commit.4cb486ee.Emscripten.clang"
  },
  "schemaVersion": "3.2.5",
  "updatedAt": "2020-09-26T10:50:21.853Z",
  "devdoc": {
    "methods": {}
  },
  "userdoc": {
    "methods": {}
  }
}